{
  "contractName": "Coinflip",
  "abi": [
    {
      "inputs": [
        {
          "internalType": "address",
          "name": "tokenAddress",
          "type": "address"
        }
      ],
      "stateMutability": "nonpayable",
      "type": "constructor"
    },
    {
      "inputs": [
        {
          "internalType": "address",
          "name": "",
          "type": "address"
        }
      ],
      "name": "betOnA",
      "outputs": [
        {
          "internalType": "uint256",
          "name": "",
          "type": "uint256"
        }
      ],
      "stateMutability": "view",
      "type": "function",
      "constant": true
    },
    {
      "inputs": [
        {
          "internalType": "address",
          "name": "",
          "type": "address"
        }
      ],
      "name": "betOnB",
      "outputs": [
        {
          "internalType": "uint256",
          "name": "",
          "type": "uint256"
        }
      ],
      "stateMutability": "view",
      "type": "function",
      "constant": true
    },
    {
      "inputs": [],
      "name": "totalPriceA",
      "outputs": [
        {
          "internalType": "uint256",
          "name": "",
          "type": "uint256"
        }
      ],
      "stateMutability": "view",
      "type": "function",
      "constant": true
    },
    {
      "inputs": [],
      "name": "totalPriceB",
      "outputs": [
        {
          "internalType": "uint256",
          "name": "",
          "type": "uint256"
        }
      ],
      "stateMutability": "view",
      "type": "function",
      "constant": true
    },
    {
      "inputs": [],
      "name": "winnerA",
      "outputs": [
        {
          "internalType": "bool",
          "name": "",
          "type": "bool"
        }
      ],
      "stateMutability": "view",
      "type": "function",
      "constant": true
    },
    {
      "inputs": [],
      "name": "winnerB",
      "outputs": [
        {
          "internalType": "bool",
          "name": "",
          "type": "bool"
        }
      ],
      "stateMutability": "view",
      "type": "function",
      "constant": true
    },
    {
      "inputs": [
        {
          "internalType": "uint256",
          "name": "amountToBet",
          "type": "uint256"
        }
      ],
      "name": "betA",
      "outputs": [],
      "stateMutability": "nonpayable",
      "type": "function"
    },
    {
      "inputs": [
        {
          "internalType": "uint256",
          "name": "amountToBet",
          "type": "uint256"
        }
      ],
      "name": "betB",
      "outputs": [],
      "stateMutability": "nonpayable",
      "type": "function"
    },
    {
      "inputs": [],
      "name": "drawWinner",
      "outputs": [],
      "stateMutability": "nonpayable",
      "type": "function"
    },
    {
      "inputs": [],
      "name": "claimPrice",
      "outputs": [],
      "stateMutability": "nonpayable",
      "type": "function"
    }
  ],
  "bytecode": "0x608060405260008060146101000a81548160ff02191690831515021790555060008060156101000a81548160ff02191690831515021790555034801561004457600080fd5b5060405162000fdd38038062000fdd83398181016040528101906100689190610111565b806000806101000a81548173ffffffffffffffffffffffffffffffffffffffff021916908373ffffffffffffffffffffffffffffffffffffffff1602179055505061013e565b600080fd5b600073ffffffffffffffffffffffffffffffffffffffff82169050919050565b60006100de826100b3565b9050919050565b6100ee816100d3565b81146100f957600080fd5b50565b60008151905061010b816100e5565b92915050565b600060208284031215610127576101266100ae565b5b6000610135848285016100fc565b91505092915050565b610e8f806200014e6000396000f3fe608060405234801561001057600080fd5b506004361061009e5760003560e01c80638cb1dcc5116100665780638cb1dcc514610147578063a8dde3c514610165578063b2185bb114610181578063e746dc261461018b578063fbbfd9ec146101a95761009e565b806315d655c9146100a3578063377b3016146100ad5780633ced8ebc146100dd57806368fec57d146100f95780637f0acfa814610117575b600080fd5b6100ab6101c7565b005b6100c760048036038101906100c291906109dc565b610564565b6040516100d49190610a22565b60405180910390f35b6100f760048036038101906100f29190610a69565b61057c565b005b6101016106f8565b60405161010e9190610a22565b60405180910390f35b610131600480360381019061012c91906109dc565b6106fe565b60405161013e9190610a22565b60405180910390f35b61014f610716565b60405161015c9190610ab1565b60405180910390f35b61017f600480360381019061017a9190610a69565b610729565b005b6101896108a5565b005b610193610960565b6040516101a09190610a22565b60405180910390f35b6101b1610966565b6040516101be9190610ab1565b60405180910390f35b600060149054906101000a900460ff16806101ee5750600060159054906101000a900460ff165b61022d576040517f08c379a000000000000000000000000000000000000000000000000000000000815260040161022490610b29565b60405180910390fd5b600060149054906101000a900460ff16156103d4576000600360003373ffffffffffffffffffffffffffffffffffffffff1673ffffffffffffffffffffffffffffffffffffffff16815260200190815260200160002054116102c4576040517f08c379a00000000000000000000000000000000000000000000000000000000081526004016102bb90610b95565b60405180910390fd5b60006002546001546102d69190610be4565b600154600360003373ffffffffffffffffffffffffffffffffffffffff1673ffffffffffffffffffffffffffffffffffffffff168152602001908152602001600020546103239190610c69565b61032d9190610c9a565b905060008054906101000a900473ffffffffffffffffffffffffffffffffffffffff1673ffffffffffffffffffffffffffffffffffffffff1663a9059cbb33836040518363ffffffff1660e01b815260040161038a929190610d03565b6020604051808303816000875af11580156103a9573d6000803e3d6000fd5b505050506040513d601f19601f820116820180604052508101906103cd9190610d58565b5050610562565b6000600460003373ffffffffffffffffffffffffffffffffffffffff1673ffffffffffffffffffffffffffffffffffffffff1681526020019081526020016000205411610456576040517f08c379a000000000000000000000000000000000000000000000000000000000815260040161044d90610b95565b60405180910390fd5b60006002546001546104689190610be4565b600254600460003373ffffffffffffffffffffffffffffffffffffffff1673ffffffffffffffffffffffffffffffffffffffff168152602001908152602001600020546104b59190610c69565b6104bf9190610c9a565b905060008054906101000a900473ffffffffffffffffffffffffffffffffffffffff1673ffffffffffffffffffffffffffffffffffffffff1663a9059cbb33836040518363ffffffff1660e01b815260040161051c929190610d03565b6020604051808303816000875af115801561053b573d6000803e3d6000fd5b505050506040513d601f19601f8201168201806040525081019061055f9190610d58565b50505b565b60036020528060005260406000206000915090505481565b600060149054906101000a900460ff161580156105a65750600060159054906101000a900460ff16155b6105e5576040517f08c379a00000000000000000000000000000000000000000000000000000000081526004016105dc90610dd1565b60405180910390fd5b60008054906101000a900473ffffffffffffffffffffffffffffffffffffffff1673ffffffffffffffffffffffffffffffffffffffff166323b872dd3330846040518463ffffffff1660e01b815260040161064293929190610df1565b6020604051808303816000875af1158015610661573d6000803e3d6000fd5b505050506040513d601f19601f820116820180604052508101906106859190610d58565b5080600360003373ffffffffffffffffffffffffffffffffffffffff1673ffffffffffffffffffffffffffffffffffffffff16815260200190815260200160002060008282546106d59190610be4565b9250508190555080600160008282546106ee9190610be4565b9250508190555050565b60015481565b60046020528060005260406000206000915090505481565b600060159054906101000a900460ff1681565b600060149054906101000a900460ff161580156107535750600060159054906101000a900460ff16155b610792576040517f08c379a000000000000000000000000000000000000000000000000000000000815260040161078990610dd1565b60405180910390fd5b60008054906101000a900473ffffffffffffffffffffffffffffffffffffffff1673ffffffffffffffffffffffffffffffffffffffff166323b872dd3330846040518463ffffffff1660e01b81526004016107ef93929190610df1565b6020604051808303816000875af115801561080e573d6000803e3d6000fd5b505050506040513d601f19601f820116820180604052508101906108329190610d58565b5080600460003373ffffffffffffffffffffffffffffffffffffffff1673ffffffffffffffffffffffffffffffffffffffff16815260200190815260200160002060008282546108829190610be4565b92505081905550806002600082825461089b9190610be4565b9250508190555050565b600060149054906101000a900460ff161580156108cf5750600060159054906101000a900460ff16155b61090e576040517f08c379a000000000000000000000000000000000000000000000000000000000815260040161090590610dd1565b60405180910390fd5b600060024361091d9190610e28565b03610942576001600060146101000a81548160ff02191690831515021790555061095e565b6001600060156101000a81548160ff0219169083151502179055505b565b60025481565b600060149054906101000a900460ff1681565b600080fd5b600073ffffffffffffffffffffffffffffffffffffffff82169050919050565b60006109a98261097e565b9050919050565b6109b98161099e565b81146109c457600080fd5b50565b6000813590506109d6816109b0565b92915050565b6000602082840312156109f2576109f1610979565b5b6000610a00848285016109c7565b91505092915050565b6000819050919050565b610a1c81610a09565b82525050565b6000602082019050610a376000830184610a13565b92915050565b610a4681610a09565b8114610a5157600080fd5b50565b600081359050610a6381610a3d565b92915050565b600060208284031215610a7f57610a7e610979565b5b6000610a8d84828501610a54565b91505092915050565b60008115159050919050565b610aab81610a96565b82525050565b6000602082019050610ac66000830184610aa2565b92915050565b600082825260208201905092915050565b7f4e6f2077696e6e657220686173206265656e20647261776e2079657400000000600082015250565b6000610b13601c83610acc565b9150610b1e82610add565b602082019050919050565b60006020820190508181036000830152610b4281610b06565b9050919050565b7f4e6f2062657473207765726520706c6163656400000000000000000000000000600082015250565b6000610b7f601383610acc565b9150610b8a82610b49565b602082019050919050565b60006020820190508181036000830152610bae81610b72565b9050919050565b7f4e487b7100000000000000000000000000000000000000000000000000000000600052601160045260246000fd5b6000610bef82610a09565b9150610bfa83610a09565b9250827fffffffffffffffffffffffffffffffffffffffffffffffffffffffffffffffff03821115610c2f57610c2e610bb5565b5b828201905092915050565b7f4e487b7100000000000000000000000000000000000000000000000000000000600052601260045260246000fd5b6000610c7482610a09565b9150610c7f83610a09565b925082610c8f57610c8e610c3a565b5b828204905092915050565b6000610ca582610a09565b9150610cb083610a09565b9250817fffffffffffffffffffffffffffffffffffffffffffffffffffffffffffffffff0483118215151615610ce957610ce8610bb5565b5b828202905092915050565b610cfd8161099e565b82525050565b6000604082019050610d186000830185610cf4565b610d256020830184610a13565b9392505050565b610d3581610a96565b8114610d4057600080fd5b50565b600081519050610d5281610d2c565b92915050565b600060208284031215610d6e57610d6d610979565b5b6000610d7c84828501610d43565b91505092915050565b7f57696e6e657220686173206e6f74206265656e20647261776e20796574000000600082015250565b6000610dbb601d83610acc565b9150610dc682610d85565b602082019050919050565b60006020820190508181036000830152610dea81610dae565b9050919050565b6000606082019050610e066000830186610cf4565b610e136020830185610cf4565b610e206040830184610a13565b949350505050565b6000610e3382610a09565b9150610e3e83610a09565b925082610e4e57610e4d610c3a565b5b82820690509291505056fea2646970667358221220025aefb9a7bd82ad9d921c5d40e9aef7e09bdbdda8a6bdaf422a0daf006f6f3b64736f6c634300080d0033",
  "immutableReferences": {},
  "source": "// SPDX-License-Identifier: MIT\r\npragma solidity ^0.8.10;\r\n\r\nimport \"./IERC20.sol\";\r\n\r\ncontract Coinflip {\r\n    IERC20 token;\r\n\r\n    bool public winnerA = false;\r\n    bool public winnerB = false;\r\n\r\n    uint256 public totalPriceA;\r\n    uint256 public totalPriceB;\r\n\r\n    mapping(address => uint256) public betOnA;\r\n    mapping(address => uint256) public betOnB;\r\n\r\n    constructor(address tokenAddress) {\r\n        token = IERC20(tokenAddress);\r\n    }\r\n\r\n    modifier winnerDrawn() {\r\n        require(winnerA || winnerB, \"No winner has been drawn yet\");\r\n        _;\r\n    }\r\n\r\n    modifier coinFlipOngoing() {\r\n        require(!winnerA && !winnerB, \"Winner has not been drawn yet\");\r\n        _;\r\n    }\r\n\r\n    function betA(uint256 amountToBet) public coinFlipOngoing {\r\n        token.transferFrom(msg.sender, address(this), amountToBet);\r\n        betOnA[msg.sender] += amountToBet;\r\n        totalPriceA += amountToBet;\r\n    }\r\n\r\n    function betB(uint256 amountToBet) public coinFlipOngoing {\r\n        token.transferFrom(msg.sender, address(this), amountToBet);\r\n        betOnB[msg.sender] += amountToBet;\r\n        totalPriceB += amountToBet;\r\n    }\r\n\r\n    function drawWinner() public coinFlipOngoing {\r\n        if (block.number % 2 == 0) {\r\n            winnerA = true;\r\n        } else {\r\n            winnerB = true;\r\n        }\r\n    }\r\n\r\n    function claimPrice() external winnerDrawn {\r\n        if (winnerA) {\r\n            require(betOnA[msg.sender] > 0, \"No bets were placed\");\r\n            uint256 amountWon = (betOnA[msg.sender] / totalPriceA) *\r\n                (totalPriceA + totalPriceB);\r\n            token.transfer(msg.sender, amountWon);\r\n        } else {\r\n            require(betOnB[msg.sender] > 0, \"No bets were placed\");\r\n            uint256 amountWon = (betOnB[msg.sender] / totalPriceB) *\r\n                (totalPriceA + totalPriceB);\r\n            token.transfer(msg.sender, amountWon);\r\n        }\r\n    }\r\n}\r\n",
  "sourcePath": "C:\\truffle\\contracts\\coinflip.sol",
  "compiler": {
    "name": "solc",
    "version": "0.8.13+commit.abaa5c0e.Emscripten.clang"
  },
  "schemaVersion": "3.4.7",
  "updatedAt": "2022-05-09T16:22:25.011Z",
  "networkType": "ethereum",
  "devdoc": {
    "kind": "dev",
    "methods": {},
    "version": 1
  },
  "userdoc": {
    "kind": "user",
    "methods": {},
    "version": 1
  }
}